{
  "address": "0x23D5aE989bA15F3f748892dCFD241b6408c66B84",
  "abi": [
    {
      "inputs": [
        {
          "internalType": "address",
          "name": "vrfCoordinator",
          "type": "address"
        },
        {
          "internalType": "uint256",
          "name": "entranceFee",
          "type": "uint256"
        },
        {
          "internalType": "bytes32",
          "name": "keyHash",
          "type": "bytes32"
        },
        {
          "internalType": "uint256",
          "name": "subscriptionId",
          "type": "uint256"
        },
        {
          "internalType": "uint32",
          "name": "callBackGasLimit",
          "type": "uint32"
        },
        {
          "internalType": "uint256",
          "name": "interval",
          "type": "uint256"
        }
      ],
      "stateMutability": "nonpayable",
      "type": "constructor"
    },
    {
      "inputs": [
        {
          "internalType": "address",
          "name": "have",
          "type": "address"
        },
        {
          "internalType": "address",
          "name": "want",
          "type": "address"
        }
      ],
      "name": "OnlyCoordinatorCanFulfill",
      "type": "error"
    },
    {
      "inputs": [
        {
          "internalType": "address",
          "name": "have",
          "type": "address"
        },
        {
          "internalType": "address",
          "name": "owner",
          "type": "address"
        },
        {
          "internalType": "address",
          "name": "coordinator",
          "type": "address"
        }
      ],
      "name": "OnlyOwnerOrCoordinator",
      "type": "error"
    },
    {
      "inputs": [],
      "name": "Raffle__NotEnougthETHEntered",
      "type": "error"
    },
    {
      "inputs": [],
      "name": "Raffle__NotOpen",
      "type": "error"
    },
    {
      "inputs": [],
      "name": "Raffle__TransferFailed",
      "type": "error"
    },
    {
      "inputs": [
        {
          "internalType": "uint256",
          "name": "currentBalance",
          "type": "uint256"
        },
        {
          "internalType": "uint256",
          "name": "numPlayers",
          "type": "uint256"
        },
        {
          "internalType": "uint256",
          "name": "raffleState",
          "type": "uint256"
        }
      ],
      "name": "Raffle__UpkeepNotNeeded",
      "type": "error"
    },
    {
      "inputs": [],
      "name": "ZeroAddress",
      "type": "error"
    },
    {
      "anonymous": false,
      "inputs": [
        {
          "indexed": false,
          "internalType": "address",
          "name": "vrfCoordinator",
          "type": "address"
        }
      ],
      "name": "CoordinatorSet",
      "type": "event"
    },
    {
      "anonymous": false,
      "inputs": [
        {
          "indexed": true,
          "internalType": "address",
          "name": "from",
          "type": "address"
        },
        {
          "indexed": true,
          "internalType": "address",
          "name": "to",
          "type": "address"
        }
      ],
      "name": "OwnershipTransferRequested",
      "type": "event"
    },
    {
      "anonymous": false,
      "inputs": [
        {
          "indexed": true,
          "internalType": "address",
          "name": "from",
          "type": "address"
        },
        {
          "indexed": true,
          "internalType": "address",
          "name": "to",
          "type": "address"
        }
      ],
      "name": "OwnershipTransferred",
      "type": "event"
    },
    {
      "anonymous": false,
      "inputs": [
        {
          "indexed": true,
          "internalType": "address",
          "name": "player",
          "type": "address"
        }
      ],
      "name": "RaffleEnter",
      "type": "event"
    },
    {
      "anonymous": false,
      "inputs": [
        {
          "indexed": true,
          "internalType": "address",
          "name": "winner",
          "type": "address"
        }
      ],
      "name": "RaffleWinner",
      "type": "event"
    },
    {
      "anonymous": false,
      "inputs": [
        {
          "indexed": true,
          "internalType": "uint256",
          "name": "requestId",
          "type": "uint256"
        }
      ],
      "name": "RequestedRaffleWinner",
      "type": "event"
    },
    {
      "inputs": [],
      "name": "acceptOwnership",
      "outputs": [],
      "stateMutability": "nonpayable",
      "type": "function"
    },
    {
      "inputs": [
        {
          "internalType": "bytes",
          "name": "",
          "type": "bytes"
        }
      ],
      "name": "checkUpkeep",
      "outputs": [
        {
          "internalType": "bool",
          "name": "upkeepNeeded",
          "type": "bool"
        },
        {
          "internalType": "bytes",
          "name": "",
          "type": "bytes"
        }
      ],
      "stateMutability": "view",
      "type": "function"
    },
    {
      "inputs": [],
      "name": "enterRaffle",
      "outputs": [],
      "stateMutability": "payable",
      "type": "function"
    },
    {
      "inputs": [],
      "name": "getEntranceFee",
      "outputs": [
        {
          "internalType": "uint256",
          "name": "",
          "type": "uint256"
        }
      ],
      "stateMutability": "view",
      "type": "function"
    },
    {
      "inputs": [],
      "name": "getInterval",
      "outputs": [
        {
          "internalType": "uint256",
          "name": "",
          "type": "uint256"
        }
      ],
      "stateMutability": "view",
      "type": "function"
    },
    {
      "inputs": [],
      "name": "getLatestTimeStamp",
      "outputs": [
        {
          "internalType": "uint256",
          "name": "",
          "type": "uint256"
        }
      ],
      "stateMutability": "view",
      "type": "function"
    },
    {
      "inputs": [],
      "name": "getNumOfPlayers",
      "outputs": [
        {
          "internalType": "uint256",
          "name": "",
          "type": "uint256"
        }
      ],
      "stateMutability": "view",
      "type": "function"
    },
    {
      "inputs": [],
      "name": "getNumWords",
      "outputs": [
        {
          "internalType": "uint32",
          "name": "",
          "type": "uint32"
        }
      ],
      "stateMutability": "pure",
      "type": "function"
    },
    {
      "inputs": [
        {
          "internalType": "uint256",
          "name": "index",
          "type": "uint256"
        }
      ],
      "name": "getPlayer",
      "outputs": [
        {
          "internalType": "address",
          "name": "",
          "type": "address"
        }
      ],
      "stateMutability": "view",
      "type": "function"
    },
    {
      "inputs": [],
      "name": "getRaffleState",
      "outputs": [
        {
          "internalType": "enum Raffle.RaffleState",
          "name": "",
          "type": "uint8"
        }
      ],
      "stateMutability": "view",
      "type": "function"
    },
    {
      "inputs": [],
      "name": "getRecentWinner",
      "outputs": [
        {
          "internalType": "address",
          "name": "",
          "type": "address"
        }
      ],
      "stateMutability": "view",
      "type": "function"
    },
    {
      "inputs": [],
      "name": "getRequestConfirmations",
      "outputs": [
        {
          "internalType": "uint16",
          "name": "",
          "type": "uint16"
        }
      ],
      "stateMutability": "pure",
      "type": "function"
    },
    {
      "inputs": [],
      "name": "getSubscriptionId",
      "outputs": [
        {
          "internalType": "uint256",
          "name": "",
          "type": "uint256"
        }
      ],
      "stateMutability": "view",
      "type": "function"
    },
    {
      "inputs": [],
      "name": "owner",
      "outputs": [
        {
          "internalType": "address",
          "name": "",
          "type": "address"
        }
      ],
      "stateMutability": "view",
      "type": "function"
    },
    {
      "inputs": [
        {
          "internalType": "bytes",
          "name": "",
          "type": "bytes"
        }
      ],
      "name": "performUpkeep",
      "outputs": [],
      "stateMutability": "nonpayable",
      "type": "function"
    },
    {
      "inputs": [
        {
          "internalType": "uint256",
          "name": "requestId",
          "type": "uint256"
        },
        {
          "internalType": "uint256[]",
          "name": "randomWords",
          "type": "uint256[]"
        }
      ],
      "name": "rawFulfillRandomWords",
      "outputs": [],
      "stateMutability": "nonpayable",
      "type": "function"
    },
    {
      "inputs": [],
      "name": "s_vrfCoordinator",
      "outputs": [
        {
          "internalType": "contract IVRFCoordinatorV2Plus",
          "name": "",
          "type": "address"
        }
      ],
      "stateMutability": "view",
      "type": "function"
    },
    {
      "inputs": [
        {
          "internalType": "address",
          "name": "_vrfCoordinator",
          "type": "address"
        }
      ],
      "name": "setCoordinator",
      "outputs": [],
      "stateMutability": "nonpayable",
      "type": "function"
    },
    {
      "inputs": [
        {
          "internalType": "address",
          "name": "to",
          "type": "address"
        }
      ],
      "name": "transferOwnership",
      "outputs": [],
      "stateMutability": "nonpayable",
      "type": "function"
    }
  ],
  "transactionHash": "0xc7ed2fb6bdd770d4d5dca9254717dfcf8e25a7f7906e4630b2ab62aca1947566",
  "args": [
    "0x9DdfaCa8183c41ad55329BdeeD9F6A8d53168B1B",
    "1000000000000000",
    "0x787d74caea10b2b357790d5b5247c2f63d1d91572a9846f780606e4d953677ae",
    "68657512214402312478525084379729655404206218810267283540715287438251696187941",
    "500000",
    "30"
  ],
  "numDeployments": 7,
  "solcInputHash": "e72b5f08a9a0bc128c2818d227859d99",
  "bytecode": "0x6101206040523480156200001257600080fd5b5060405162002607380380620026078339818101604052810190620000389190620004a7565b85338060008073ffffffffffffffffffffffffffffffffffffffff168273ffffffffffffffffffffffffffffffffffffffff1603620000ae576040517f08c379a0000000000000000000000000000000000000000000000000000000008152600401620000a590620005a4565b60405180910390fd5b816000806101000a81548173ffffffffffffffffffffffffffffffffffffffff021916908373ffffffffffffffffffffffffffffffffffffffff160217905550600073ffffffffffffffffffffffffffffffffffffffff168173ffffffffffffffffffffffffffffffffffffffff1614620001355762000134816200025760201b60201c565b5b505050600073ffffffffffffffffffffffffffffffffffffffff168173ffffffffffffffffffffffffffffffffffffffff16036200019f576040517fd92e233d00000000000000000000000000000000000000000000000000000000815260040160405180910390fd5b80600260006101000a81548173ffffffffffffffffffffffffffffffffffffffff021916908373ffffffffffffffffffffffffffffffffffffffff1602179055505084608081815250508360a081815250508260c081815250508163ffffffff1660e08163ffffffff16815250506000600460146101000a81548160ff02191690836001811115620002365762000235620005c6565b5b02179055504260058190555080610100818152505050505050505062000667565b3373ffffffffffffffffffffffffffffffffffffffff168173ffffffffffffffffffffffffffffffffffffffff1603620002c8576040517f08c379a0000000000000000000000000000000000000000000000000000000008152600401620002bf9062000645565b60405180910390fd5b80600160006101000a81548173ffffffffffffffffffffffffffffffffffffffff021916908373ffffffffffffffffffffffffffffffffffffffff1602179055508073ffffffffffffffffffffffffffffffffffffffff1660008054906101000a900473ffffffffffffffffffffffffffffffffffffffff1673ffffffffffffffffffffffffffffffffffffffff167fed8889f560326eb138920d842192f0eb3dd22b4f139c87a2c57538e05bae127860405160405180910390a350565b600080fd5b600073ffffffffffffffffffffffffffffffffffffffff82169050919050565b6000620003b8826200038b565b9050919050565b620003ca81620003ab565b8114620003d657600080fd5b50565b600081519050620003ea81620003bf565b92915050565b6000819050919050565b6200040581620003f0565b81146200041157600080fd5b50565b6000815190506200042581620003fa565b92915050565b6000819050919050565b62000440816200042b565b81146200044c57600080fd5b50565b600081519050620004608162000435565b92915050565b600063ffffffff82169050919050565b620004818162000466565b81146200048d57600080fd5b50565b600081519050620004a18162000476565b92915050565b60008060008060008060c08789031215620004c757620004c662000386565b5b6000620004d789828a01620003d9565b9650506020620004ea89828a0162000414565b9550506040620004fd89828a016200044f565b94505060606200051089828a0162000414565b93505060806200052389828a0162000490565b92505060a06200053689828a0162000414565b9150509295509295509295565b600082825260208201905092915050565b7f43616e6e6f7420736574206f776e657220746f207a65726f0000000000000000600082015250565b60006200058c60188362000543565b9150620005998262000554565b602082019050919050565b60006020820190508181036000830152620005bf816200057d565b9050919050565b7f4e487b7100000000000000000000000000000000000000000000000000000000600052602160045260246000fd5b7f43616e6e6f74207472616e7366657220746f2073656c66000000000000000000600082015250565b60006200062d60178362000543565b91506200063a82620005f5565b602082019050919050565b6000602082019050818103600083015262000660816200061e565b9050919050565b60805160a05160c05160e05161010051611f46620006c16000396000818161097b0152610d9d015260006108080152600081816107d70152610deb015260006107b101526000818161043601526105390152611f466000f3fe6080604052600436106101145760003560e01c80635f1b0fd8116100a057806391ad27b41161006457806391ad27b41461034b5780639eccacf614610376578063de3d9fb7146103a1578063e55ae4e8146103cc578063f2fde38b1461040957610114565b80635f1b0fd8146102775780636e04ff0d146102a257806379ba5097146102e05780638da5cb5b146102f75780638ea981171461032257610114565b8063320229eb116100e7578063320229eb146101a25780634585e33b146101cd578063473f1ddc146101f657806353a2c19a14610221578063565429de1461024c57610114565b806309bc33a714610119578063115cbaf5146101445780631fe543e31461016f5780632cfcc53914610198575b600080fd5b34801561012557600080fd5b5061012e610432565b60405161013b91906113b2565b60405180910390f35b34801561015057600080fd5b5061015961045a565b6040516101669190611444565b60405180910390f35b34801561017b57600080fd5b5061019660048036038101906101919190611504565b610471565b005b6101a0610537565b005b3480156101ae57600080fd5b506101b76106a6565b6040516101c491906113b2565b60405180910390f35b3480156101d957600080fd5b506101f460048036038101906101ef91906115ba565b6106b0565b005b34801561020257600080fd5b5061020b6108f0565b6040516102189190611648565b60405180910390f35b34801561022d57600080fd5b5061023661091a565b6040516102439190611682565b60405180910390f35b34801561025857600080fd5b50610261610923565b60405161026e91906113b2565b60405180910390f35b34801561028357600080fd5b5061028c610930565b60405161029991906116ba565b60405180910390f35b3480156102ae57600080fd5b506102c960048036038101906102c49190611816565b610939565b6040516102d79291906118f9565b60405180910390f35b3480156102ec57600080fd5b506102f56109fa565b005b34801561030357600080fd5b5061030c610b8f565b6040516103199190611648565b60405180910390f35b34801561032e57600080fd5b5061034960048036038101906103449190611955565b610bb8565b005b34801561035757600080fd5b50610360610d99565b60405161036d91906113b2565b60405180910390f35b34801561038257600080fd5b5061038b610dc1565b60405161039891906119e1565b60405180910390f35b3480156103ad57600080fd5b506103b6610de7565b6040516103c391906113b2565b60405180910390f35b3480156103d857600080fd5b506103f360048036038101906103ee91906119fc565b610e0f565b6040516104009190611648565b60405180910390f35b34801561041557600080fd5b50610430600480360381019061042b9190611955565b610e57565b005b60007f0000000000000000000000000000000000000000000000000000000000000000905090565b6000600460149054906101000a900460ff16905090565b600260009054906101000a900473ffffffffffffffffffffffffffffffffffffffff1673ffffffffffffffffffffffffffffffffffffffff163373ffffffffffffffffffffffffffffffffffffffff16146105275733600260009054906101000a900473ffffffffffffffffffffffffffffffffffffffff166040517f1cf993f400000000000000000000000000000000000000000000000000000000815260040161051e929190611a29565b60405180910390fd5b610532838383610e6b565b505050565b7f0000000000000000000000000000000000000000000000000000000000000000341015610591576040517f6cfec1a800000000000000000000000000000000000000000000000000000000815260040160405180910390fd5b600060018111156105a5576105a46113cd565b5b600460149054906101000a900460ff1660018111156105c7576105c66113cd565b5b146105fe576040517f1425571c00000000000000000000000000000000000000000000000000000000815260040160405180910390fd5b6003339080600181540180825580915050600190039060005260206000200160009091909190916101000a81548173ffffffffffffffffffffffffffffffffffffffff021916908373ffffffffffffffffffffffffffffffffffffffff1602179055503373ffffffffffffffffffffffffffffffffffffffff167f0805e1d667bddb8a95f0f09880cf94f403fb596ce79928d9f29b74203ba284d460405160405180910390a2565b6000600554905090565b60006106ca60405180602001604052806000815250610939565b509050806107395747600380549050600460149054906101000a900460ff1660018111156106fb576106fa6113cd565b5b6040517f584327aa00000000000000000000000000000000000000000000000000000000815260040161073093929190611a52565b60405180910390fd5b6001600460146101000a81548160ff0219169083600181111561075f5761075e6113cd565b5b02179055506000600260009054906101000a900473ffffffffffffffffffffffffffffffffffffffff1673ffffffffffffffffffffffffffffffffffffffff16639b1c385e6040518060c001604052807f000000000000000000000000000000000000000000000000000000000000000081526020017f00000000000000000000000000000000000000000000000000000000000000008152602001600361ffff1681526020017f000000000000000000000000000000000000000000000000000000000000000063ffffffff168152602001600163ffffffff16815260200161085960405180602001604052806000151581525061109e565b8152506040518263ffffffff1660e01b81526004016108789190611ba2565b6020604051808303816000875af1158015610897573d6000803e3d6000fd5b505050506040513d601f19601f820116820180604052508101906108bb9190611bd9565b9050807fcd6e45c8998311cab7e9d4385596cac867e20a0587194b954fa3a731c93ce78b60405160405180910390a250505050565b6000600460009054906101000a900473ffffffffffffffffffffffffffffffffffffffff16905090565b60006001905090565b6000600380549050905090565b60006003905090565b600060606000806001811115610952576109516113cd565b5b600460149054906101000a900460ff166001811115610974576109736113cd565b5b14905060007f0000000000000000000000000000000000000000000000000000000000000000600554426109a89190611c35565b119050600080600380549050119050600080471190508380156109c85750825b80156109d15750815b80156109da5750805b955085604051806020016040528060008152509550955050505050915091565b600160009054906101000a900473ffffffffffffffffffffffffffffffffffffffff1673ffffffffffffffffffffffffffffffffffffffff163373ffffffffffffffffffffffffffffffffffffffff1614610a8a576040517f08c379a0000000000000000000000000000000000000000000000000000000008152600401610a8190611cc6565b60405180910390fd5b60008060009054906101000a900473ffffffffffffffffffffffffffffffffffffffff169050336000806101000a81548173ffffffffffffffffffffffffffffffffffffffff021916908373ffffffffffffffffffffffffffffffffffffffff1602179055506000600160006101000a81548173ffffffffffffffffffffffffffffffffffffffff021916908373ffffffffffffffffffffffffffffffffffffffff1602179055503373ffffffffffffffffffffffffffffffffffffffff168173ffffffffffffffffffffffffffffffffffffffff167f8be0079c531659141344cd1fd0a4f28419497f9722a3daafe3b4186f6b6457e060405160405180910390a350565b60008060009054906101000a900473ffffffffffffffffffffffffffffffffffffffff16905090565b610bc0610b8f565b73ffffffffffffffffffffffffffffffffffffffff163373ffffffffffffffffffffffffffffffffffffffff1614158015610c495750600260009054906101000a900473ffffffffffffffffffffffffffffffffffffffff1673ffffffffffffffffffffffffffffffffffffffff163373ffffffffffffffffffffffffffffffffffffffff1614155b15610cb85733610c57610b8f565b600260009054906101000a900473ffffffffffffffffffffffffffffffffffffffff166040517f061db9c1000000000000000000000000000000000000000000000000000000008152600401610caf93929190611ce6565b60405180910390fd5b600073ffffffffffffffffffffffffffffffffffffffff168173ffffffffffffffffffffffffffffffffffffffff1603610d1e576040517fd92e233d00000000000000000000000000000000000000000000000000000000815260040160405180910390fd5b80600260006101000a81548173ffffffffffffffffffffffffffffffffffffffff021916908373ffffffffffffffffffffffffffffffffffffffff1602179055507fd1a6a14209a385a964d036e404cb5cfb71f4000cdb03c9366292430787261be681604051610d8e9190611648565b60405180910390a150565b60007f0000000000000000000000000000000000000000000000000000000000000000905090565b600260009054906101000a900473ffffffffffffffffffffffffffffffffffffffff1681565b60007f0000000000000000000000000000000000000000000000000000000000000000905090565b600060038281548110610e2557610e24611d1d565b5b9060005260206000200160009054906101000a900473ffffffffffffffffffffffffffffffffffffffff169050919050565b610e5f611136565b610e68816111c6565b50565b600060038054905083836000818110610e8757610e86611d1d565b5b90506020020135610e989190611d7b565b9050600060038281548110610eb057610eaf611d1d565b5b9060005260206000200160009054906101000a900473ffffffffffffffffffffffffffffffffffffffff16905080600460006101000a81548173ffffffffffffffffffffffffffffffffffffffff021916908373ffffffffffffffffffffffffffffffffffffffff1602179055506000600460146101000a81548160ff02191690836001811115610f4457610f436113cd565b5b0217905550600067ffffffffffffffff811115610f6457610f636116eb565b5b604051908082528060200260200182016040528015610f925781602001602082028036833780820191505090505b5060039080519060200190610fa89291906112f2565b504260058190555060008173ffffffffffffffffffffffffffffffffffffffff1647604051610fd690611ddd565b60006040518083038185875af1925050503d8060008114611013576040519150601f19603f3d011682016040523d82523d6000602084013e611018565b606091505b5050905080611053576040517fa1d04b3900000000000000000000000000000000000000000000000000000000815260040160405180910390fd5b8173ffffffffffffffffffffffffffffffffffffffff167f16d6ae18ca26331fba5a8b53b0749a009d33b172b68a49d64a767782f5b6010360405160405180910390a2505050505050565b60607f92fd13387c7fe7befbc38d303d6468778fb9731bc4583f17d92989c6fcfdeaaa826040516024016110d29190611e1d565b604051602081830303815290604052907bffffffffffffffffffffffffffffffffffffffffffffffffffffffff19166020820180517bffffffffffffffffffffffffffffffffffffffffffffffffffffffff83818316178352505050509050919050565b60008054906101000a900473ffffffffffffffffffffffffffffffffffffffff1673ffffffffffffffffffffffffffffffffffffffff163373ffffffffffffffffffffffffffffffffffffffff16146111c4576040517f08c379a00000000000000000000000000000000000000000000000000000000081526004016111bb90611e84565b60405180910390fd5b565b3373ffffffffffffffffffffffffffffffffffffffff168173ffffffffffffffffffffffffffffffffffffffff1603611234576040517f08c379a000000000000000000000000000000000000000000000000000000000815260040161122b90611ef0565b60405180910390fd5b80600160006101000a81548173ffffffffffffffffffffffffffffffffffffffff021916908373ffffffffffffffffffffffffffffffffffffffff1602179055508073ffffffffffffffffffffffffffffffffffffffff1660008054906101000a900473ffffffffffffffffffffffffffffffffffffffff1673ffffffffffffffffffffffffffffffffffffffff167fed8889f560326eb138920d842192f0eb3dd22b4f139c87a2c57538e05bae127860405160405180910390a350565b82805482825590600052602060002090810192821561136b579160200282015b8281111561136a5782518260006101000a81548173ffffffffffffffffffffffffffffffffffffffff021916908373ffffffffffffffffffffffffffffffffffffffff16021790555091602001919060010190611312565b5b509050611378919061137c565b5090565b5b8082111561139557600081600090555060010161137d565b5090565b6000819050919050565b6113ac81611399565b82525050565b60006020820190506113c760008301846113a3565b92915050565b7f4e487b7100000000000000000000000000000000000000000000000000000000600052602160045260246000fd5b6002811061140d5761140c6113cd565b5b50565b600081905061141e826113fc565b919050565b600061142e82611410565b9050919050565b61143e81611423565b82525050565b60006020820190506114596000830184611435565b92915050565b6000604051905090565b600080fd5b600080fd5b61147c81611399565b811461148757600080fd5b50565b60008135905061149981611473565b92915050565b600080fd5b600080fd5b600080fd5b60008083601f8401126114c4576114c361149f565b5b8235905067ffffffffffffffff8111156114e1576114e06114a4565b5b6020830191508360208202830111156114fd576114fc6114a9565b5b9250929050565b60008060006040848603121561151d5761151c611469565b5b600061152b8682870161148a565b935050602084013567ffffffffffffffff81111561154c5761154b61146e565b5b611558868287016114ae565b92509250509250925092565b60008083601f84011261157a5761157961149f565b5b8235905067ffffffffffffffff811115611597576115966114a4565b5b6020830191508360018202830111156115b3576115b26114a9565b5b9250929050565b600080602083850312156115d1576115d0611469565b5b600083013567ffffffffffffffff8111156115ef576115ee61146e565b5b6115fb85828601611564565b92509250509250929050565b600073ffffffffffffffffffffffffffffffffffffffff82169050919050565b600061163282611607565b9050919050565b61164281611627565b82525050565b600060208201905061165d6000830184611639565b92915050565b600063ffffffff82169050919050565b61167c81611663565b82525050565b60006020820190506116976000830184611673565b92915050565b600061ffff82169050919050565b6116b48161169d565b82525050565b60006020820190506116cf60008301846116ab565b92915050565b600080fd5b6000601f19601f8301169050919050565b7f4e487b7100000000000000000000000000000000000000000000000000000000600052604160045260246000fd5b611723826116da565b810181811067ffffffffffffffff82111715611742576117416116eb565b5b80604052505050565b600061175561145f565b9050611761828261171a565b919050565b600067ffffffffffffffff821115611781576117806116eb565b5b61178a826116da565b9050602081019050919050565b82818337600083830152505050565b60006117b96117b484611766565b61174b565b9050828152602081018484840111156117d5576117d46116d5565b5b6117e0848285611797565b509392505050565b600082601f8301126117fd576117fc61149f565b5b813561180d8482602086016117a6565b91505092915050565b60006020828403121561182c5761182b611469565b5b600082013567ffffffffffffffff81111561184a5761184961146e565b5b611856848285016117e8565b91505092915050565b60008115159050919050565b6118748161185f565b82525050565b600081519050919050565b600082825260208201905092915050565b60005b838110156118b4578082015181840152602081019050611899565b60008484015250505050565b60006118cb8261187a565b6118d58185611885565b93506118e5818560208601611896565b6118ee816116da565b840191505092915050565b600060408201905061190e600083018561186b565b818103602083015261192081846118c0565b90509392505050565b61193281611627565b811461193d57600080fd5b50565b60008135905061194f81611929565b92915050565b60006020828403121561196b5761196a611469565b5b600061197984828501611940565b91505092915050565b6000819050919050565b60006119a76119a261199d84611607565b611982565b611607565b9050919050565b60006119b98261198c565b9050919050565b60006119cb826119ae565b9050919050565b6119db816119c0565b82525050565b60006020820190506119f660008301846119d2565b92915050565b600060208284031215611a1257611a11611469565b5b6000611a208482850161148a565b91505092915050565b6000604082019050611a3e6000830185611639565b611a4b6020830184611639565b9392505050565b6000606082019050611a6760008301866113a3565b611a7460208301856113a3565b611a8160408301846113a3565b949350505050565b6000819050919050565b611a9c81611a89565b82525050565b611aab81611399565b82525050565b611aba8161169d565b82525050565b611ac981611663565b82525050565b600082825260208201905092915050565b6000611aeb8261187a565b611af58185611acf565b9350611b05818560208601611896565b611b0e816116da565b840191505092915050565b600060c083016000830151611b316000860182611a93565b506020830151611b446020860182611aa2565b506040830151611b576040860182611ab1565b506060830151611b6a6060860182611ac0565b506080830151611b7d6080860182611ac0565b5060a083015184820360a0860152611b958282611ae0565b9150508091505092915050565b60006020820190508181036000830152611bbc8184611b19565b905092915050565b600081519050611bd381611473565b92915050565b600060208284031215611bef57611bee611469565b5b6000611bfd84828501611bc4565b91505092915050565b7f4e487b7100000000000000000000000000000000000000000000000000000000600052601160045260246000fd5b6000611c4082611399565b9150611c4b83611399565b9250828203905081811115611c6357611c62611c06565b5b92915050565b600082825260208201905092915050565b7f4d7573742062652070726f706f736564206f776e657200000000000000000000600082015250565b6000611cb0601683611c69565b9150611cbb82611c7a565b602082019050919050565b60006020820190508181036000830152611cdf81611ca3565b9050919050565b6000606082019050611cfb6000830186611639565b611d086020830185611639565b611d156040830184611639565b949350505050565b7f4e487b7100000000000000000000000000000000000000000000000000000000600052603260045260246000fd5b7f4e487b7100000000000000000000000000000000000000000000000000000000600052601260045260246000fd5b6000611d8682611399565b9150611d9183611399565b925082611da157611da0611d4c565b5b828206905092915050565b600081905092915050565b50565b6000611dc7600083611dac565b9150611dd282611db7565b600082019050919050565b6000611de882611dba565b9150819050919050565b611dfb8161185f565b82525050565b602082016000820151611e176000850182611df2565b50505050565b6000602082019050611e326000830184611e01565b92915050565b7f4f6e6c792063616c6c61626c65206279206f776e657200000000000000000000600082015250565b6000611e6e601683611c69565b9150611e7982611e38565b602082019050919050565b60006020820190508181036000830152611e9d81611e61565b9050919050565b7f43616e6e6f74207472616e7366657220746f2073656c66000000000000000000600082015250565b6000611eda601783611c69565b9150611ee582611ea4565b602082019050919050565b60006020820190508181036000830152611f0981611ecd565b905091905056fea264697066735822122007658ff04de268d2f1bff8dd79b1e0d66cd7a01da76b14092763eb2873ed0c7f64736f6c63430008180033",
  "devdoc": {
    "author": "Abdul Ahad",
    "details": "This implements chainlink VRF-V2 and chainlink Automation",
    "kind": "dev",
    "methods": {
      "checkUpkeep(bytes)": {
        "details": "This is the function that the Chainlink Keeper nodes call they look for `upkeepNeeded` to return True. the following should be true for this to return true: 1. The time interval has passed between raffle runs. 2. The lottery is open. 3. The contract has ETH. 4. Implicity, your subscription is funded with LINK."
      }
    },
    "title": "A Raffle contract that uses Chainlink VRF to pick a winner",
    "version": 1
  },
  "userdoc": {
    "kind": "user",
    "methods": {
      "acceptOwnership()": {
        "notice": "Allows an ownership transfer to be completed by the recipient."
      },
      "owner()": {
        "notice": "Get the current owner"
      },
      "setCoordinator(address)": {
        "notice": "Sets the VRF Coordinator addressThis method should only be callable by the coordinator or contract owner"
      },
      "transferOwnership(address)": {
        "notice": "Allows an owner to begin transferring ownership to a new address."
      }
    },
    "notice": "This contract is for creating an untamperable decentralized smart contract raffle",
    "version": 1
  },
  "storageLayout": {
    "storage": [
      {
        "astId": 48,
        "contract": "contracts/Raffle.sol:Raffle",
        "label": "s_owner",
        "offset": 0,
        "slot": "0",
        "type": "t_address"
      },
      {
        "astId": 50,
        "contract": "contracts/Raffle.sol:Raffle",
        "label": "s_pendingOwner",
        "offset": 0,
        "slot": "1",
        "type": "t_address"
      },
      {
        "astId": 2331,
        "contract": "contracts/Raffle.sol:Raffle",
        "label": "s_vrfCoordinator",
        "offset": 0,
        "slot": "2",
        "type": "t_contract(IVRFCoordinatorV2Plus)2480"
      },
      {
        "astId": 3490,
        "contract": "contracts/Raffle.sol:Raffle",
        "label": "s_players",
        "offset": 0,
        "slot": "3",
        "type": "t_array(t_address_payable)dyn_storage"
      },
      {
        "astId": 3504,
        "contract": "contracts/Raffle.sol:Raffle",
        "label": "s_recentWinner",
        "offset": 0,
        "slot": "4",
        "type": "t_address"
      },
      {
        "astId": 3507,
        "contract": "contracts/Raffle.sol:Raffle",
        "label": "s_raffleState",
        "offset": 20,
        "slot": "4",
        "type": "t_enum(RaffleState)3485"
      },
      {
        "astId": 3509,
        "contract": "contracts/Raffle.sol:Raffle",
        "label": "s_lastTimeStamp",
        "offset": 0,
        "slot": "5",
        "type": "t_uint256"
      }
    ],
    "types": {
      "t_address": {
        "encoding": "inplace",
        "label": "address",
        "numberOfBytes": "20"
      },
      "t_address_payable": {
        "encoding": "inplace",
        "label": "address payable",
        "numberOfBytes": "20"
      },
      "t_array(t_address_payable)dyn_storage": {
        "base": "t_address_payable",
        "encoding": "dynamic_array",
        "label": "address payable[]",
        "numberOfBytes": "32"
      },
      "t_contract(IVRFCoordinatorV2Plus)2480": {
        "encoding": "inplace",
        "label": "contract IVRFCoordinatorV2Plus",
        "numberOfBytes": "20"
      },
      "t_enum(RaffleState)3485": {
        "encoding": "inplace",
        "label": "enum Raffle.RaffleState",
        "numberOfBytes": "1"
      },
      "t_uint256": {
        "encoding": "inplace",
        "label": "uint256",
        "numberOfBytes": "32"
      }
    }
  }
}